S01200006D61737465725F5350492E737265633B
S113000012C019C018C017C016C015C014C013C040
S113001012C011C010C00FC00EC00DC00CC00BC068
S11300200AC009C008C011241FBECFE5D4E0DEBF5A
S1130030CDBF20D03BC0E4CF88E287BB81E58DB93A
S113004008958823B1F0909A2FEF31EE94E0215077
S113005030409040E1F700C0000012BA2FEF31EEBB
S113006094E0215030409040E1F700C000008150FE
S113007051F70895E1DF889A81E084BBC0E0D1E0C4
S1130080D5BBCF5FCFB98EB18FB18E3719F48C2F1A
S1130090D8DF02C080E1D5DF2FEF89E698E1215057
S11300A080409040E1F700C00000EACFF894FFCF11
S9030000FC
