S0110000736C6176655F5350492E73726563AD
S11300000C942A000C943F000C943F000C943F0085
S11300100C943F000C943F000C943F000C943F0060
S11300200C943F000C943F000C943F000C943F0050
S11300300C943F000C943F000C943F000C943F0040
S11300400C943F000C943F000C943F000C943F0030
S11300500C943F0011241FBECFE5D4E0DEBFCDBF1A
S113006010E0A0E6B0E0E6E2F3E002C005900D92F5
S1130070A836B107D9F70E9425010C9491010C947C
S11300800000AB9A00C0AB980895CF93C82F6623A5
S113009011F0979A01C09798AA98A49AA59AA69A3B
S11300A0A79AAF98AE98AD98AC98CC230CF4AF9ABD
S11300B0C6FDAE9AC5FDAD9AC4FDAC9A0E9441003E
S11300C0AF98AE98AD98AC98C3FDAF9AC2FDAE9A06
S11300D0C1FDAD9AC0FDAC9A0E944100AC9AAD9AA4
S11300E0AE9AAF9ACF910895882311F0979A01C0E0
S11300F09798AA9AA498A598A698A798AB9A00C08E
S11301009C9B02C080E101C080E09D9980629E9921
S113011080649F998068AB9800C0AB9A00C09C999A
S113012081609D9982609E9984609F998860AB9854
S1130130089580E00E9474008823DCF388E090E056
S11301400197F1F780E00E9474000895CF93C82FBF
S11301500E94990060E08C2F0E944500CF91089581
S1130160611104C080580E94A600089580540E9422
S1130170A600089581E00E94A600089582E00E94EE
S1130180A6000895CF93C82F0E949900CA3049F45D
S1130190803410F080E001C080E480580E94A60002
S11301A004C061E08C2F0E944500CF910895CF9345
S11301B0DF93EC012196FC018081882329F00E94C1
S11301C0C20089918111FBCFDF91CF9108951F93D4
S11301D0CF93DF93182F8F9AA29AA39AA49AA59AE1
S11301E0A69AA79A80E09AEF0197F1F7AD9AAC9A94
S11301F00E94410080E09EE40197F1F70E944100D3
S1130200C0E0D1E0CE010197F1F70E944100CE0198
S11302100197F1F7AC980E9441002197F1F788E229
S11302200E94A60088E00E94A6000E94BA0086E010
S11302300E94A600812F0E94A600DF91CF911F91FA
S1130240089580E487BB8DB90895CF93DF93CDB72C
S1130250DEB72A970FB6F894DEBF0FBECDBF8FE08E
S11302600E94E7000E9421011ABA8FEF8BBB1EE7A0
S11302700E94BA000E94BE0080E690E00E94D7006F
S113028061E080E00E94B0001FB98EB18FB14AE0F6
S1130290BE016F5F7F4F90E00E945C01CE0101962A
S11302A00E94D7002FEF89EF90E0215080409040CA
S11302B0E1F700C00000DCCFBB274A3031F49923BA
S11302C022F4BDE2909581959F4F0C946801BB2761
S11302D0FB015527AA27880F991FAA1FA41710F0FE
S11302E0A41B83955051B9F7A05DAA3308F0A95D0A
S11302F0A193009779F7B111B1931192CB010C94AA
S11303008101DC01FC01672F71917723E1F73297BA
S113031004C07C916D9370836291AE17BF07C8F3DC
S10903200895F894FFCFDC
S10B032654657374696E6700ED
S9030000FC
